{
	"data": {
		"bytecode": {
			"linkReferences": {},
			"object": "608060405234801561000f575f80fd5b506109618061001d5f395ff3fe608060405234801561000f575f80fd5b5060043610610055575f3560e01c80632e64cec11461005957806351b6b767146100775780636057361d146100a85780636f760f41146100c457806392fa9da3146100e0575b5f80fd5b610061610110565b60405161006e91906102e1565b60405180910390f35b610091600480360381019061008c9190610335565b610139565b60405161009f9291906103ea565b60405180910390f35b6100c260048036038101906100bd9190610335565b6101ee565b005b6100de60048036038101906100d99190610544565b610218565b005b6100fa60048036038101906100f5919061059e565b61029c565b60405161010791906102e1565b60405180910390f35b5f60025f81548110610125576101246105e5565b5b905f5260205f2090600202015f0154905090565b60028181548110610148575f80fd5b905f5260205f2090600202015f91509050805f01549080600101805461016d9061063f565b80601f01602080910402602001604051908101604052809291908181526020018280546101999061063f565b80156101e45780601f106101bb576101008083540402835291602001916101e4565b820191905f5260205f20905b8154815290600101906020018083116101c757829003601f168201915b5050505050905082565b8060025f81548110610203576102026105e5565b5b905f5260205f2090600202015f018190555050565b6002604051806040016040528083815260200184815250908060018154018082558091505060019003905f5260205f2090600202015f909190919091505f820151815f01556020820151816001019081610272919061080c565b505050806003836040516102869190610915565b9081526020016040518091039020819055505050565b6003818051602081018201805184825260208301602085012081835280955050505050505f915090505481565b5f819050919050565b6102db816102c9565b82525050565b5f6020820190506102f45f8301846102d2565b92915050565b5f604051905090565b5f80fd5b5f80fd5b610314816102c9565b811461031e575f80fd5b50565b5f8135905061032f8161030b565b92915050565b5f6020828403121561034a57610349610303565b5b5f61035784828501610321565b91505092915050565b5f81519050919050565b5f82825260208201905092915050565b5f5b8381101561039757808201518184015260208101905061037c565b5f8484015250505050565b5f601f19601f8301169050919050565b5f6103bc82610360565b6103c6818561036a565b93506103d681856020860161037a565b6103df816103a2565b840191505092915050565b5f6040820190506103fd5f8301856102d2565b818103602083015261040f81846103b2565b90509392505050565b5f80fd5b5f80fd5b7f4e487b71000000000000000000000000000000000000000000000000000000005f52604160045260245ffd5b610456826103a2565b810181811067ffffffffffffffff8211171561047557610474610420565b5b80604052505050565b5f6104876102fa565b9050610493828261044d565b919050565b5f67ffffffffffffffff8211156104b2576104b1610420565b5b6104bb826103a2565b9050602081019050919050565b828183375f83830152505050565b5f6104e86104e384610498565b61047e565b9050828152602081018484840111156105045761050361041c565b5b61050f8482856104c8565b509392505050565b5f82601f83011261052b5761052a610418565b5b813561053b8482602086016104d6565b91505092915050565b5f806040838503121561055a57610559610303565b5b5f83013567ffffffffffffffff81111561057757610576610307565b5b61058385828601610517565b925050602061059485828601610321565b9150509250929050565b5f602082840312156105b3576105b2610303565b5b5f82013567ffffffffffffffff8111156105d0576105cf610307565b5b6105dc84828501610517565b91505092915050565b7f4e487b71000000000000000000000000000000000000000000000000000000005f52603260045260245ffd5b7f4e487b71000000000000000000000000000000000000000000000000000000005f52602260045260245ffd5b5f600282049050600182168061065657607f821691505b60208210810361066957610668610612565b5b50919050565b5f819050815f5260205f209050919050565b5f6020601f8301049050919050565b5f82821b905092915050565b5f600883026106cb7fffffffffffffffffffffffffffffffffffffffffffffffffffffffffffffffff82610690565b6106d58683610690565b95508019841693508086168417925050509392505050565b5f819050919050565b5f61071061070b610706846102c9565b6106ed565b6102c9565b9050919050565b5f819050919050565b610729836106f6565b61073d61073582610717565b84845461069c565b825550505050565b5f90565b610751610745565b61075c818484610720565b505050565b5b8181101561077f576107745f82610749565b600181019050610762565b5050565b601f8211156107c4576107958161066f565b61079e84610681565b810160208510156107ad578190505b6107c16107b985610681565b830182610761565b50505b505050565b5f82821c905092915050565b5f6107e45f19846008026107c9565b1980831691505092915050565b5f6107fc83836107d5565b9150826002028217905092915050565b61081582610360565b67ffffffffffffffff81111561082e5761082d610420565b5b610838825461063f565b610843828285610783565b5f60209050601f831160018114610874575f8415610862578287015190505b61086c85826107f1565b8655506108d3565b601f1984166108828661066f565b5f5b828110156108a957848901518255600182019150602085019450602081019050610884565b868310156108c657848901516108c2601f8916826107d5565b8355505b6001600288020188555050505b505050505050565b5f81905092915050565b5f6108ef82610360565b6108f981856108db565b935061090981856020860161037a565b80840191505092915050565b5f61092082846108e5565b91508190509291505056fea26469706673582212208d91953b76b132038dce7a05a2d60d330ca9f39ff3142cd70f2031bc0b59e1b164736f6c63430008180033",
			"opcodes": "PUSH1 0x80 PUSH1 0x40 MSTORE CALLVALUE DUP1 ISZERO PUSH2 0xF JUMPI PUSH0 DUP1 REVERT JUMPDEST POP PUSH2 0x961 DUP1 PUSH2 0x1D PUSH0 CODECOPY PUSH0 RETURN INVALID PUSH1 0x80 PUSH1 0x40 MSTORE CALLVALUE DUP1 ISZERO PUSH2 0xF JUMPI PUSH0 DUP1 REVERT JUMPDEST POP PUSH1 0x4 CALLDATASIZE LT PUSH2 0x55 JUMPI PUSH0 CALLDATALOAD PUSH1 0xE0 SHR DUP1 PUSH4 0x2E64CEC1 EQ PUSH2 0x59 JUMPI DUP1 PUSH4 0x51B6B767 EQ PUSH2 0x77 JUMPI DUP1 PUSH4 0x6057361D EQ PUSH2 0xA8 JUMPI DUP1 PUSH4 0x6F760F41 EQ PUSH2 0xC4 JUMPI DUP1 PUSH4 0x92FA9DA3 EQ PUSH2 0xE0 JUMPI JUMPDEST PUSH0 DUP1 REVERT JUMPDEST PUSH2 0x61 PUSH2 0x110 JUMP JUMPDEST PUSH1 0x40 MLOAD PUSH2 0x6E SWAP2 SWAP1 PUSH2 0x2E1 JUMP JUMPDEST PUSH1 0x40 MLOAD DUP1 SWAP2 SUB SWAP1 RETURN JUMPDEST PUSH2 0x91 PUSH1 0x4 DUP1 CALLDATASIZE SUB DUP2 ADD SWAP1 PUSH2 0x8C SWAP2 SWAP1 PUSH2 0x335 JUMP JUMPDEST PUSH2 0x139 JUMP JUMPDEST PUSH1 0x40 MLOAD PUSH2 0x9F SWAP3 SWAP2 SWAP1 PUSH2 0x3EA JUMP JUMPDEST PUSH1 0x40 MLOAD DUP1 SWAP2 SUB SWAP1 RETURN JUMPDEST PUSH2 0xC2 PUSH1 0x4 DUP1 CALLDATASIZE SUB DUP2 ADD SWAP1 PUSH2 0xBD SWAP2 SWAP1 PUSH2 0x335 JUMP JUMPDEST PUSH2 0x1EE JUMP JUMPDEST STOP JUMPDEST PUSH2 0xDE PUSH1 0x4 DUP1 CALLDATASIZE SUB DUP2 ADD SWAP1 PUSH2 0xD9 SWAP2 SWAP1 PUSH2 0x544 JUMP JUMPDEST PUSH2 0x218 JUMP JUMPDEST STOP JUMPDEST PUSH2 0xFA PUSH1 0x4 DUP1 CALLDATASIZE SUB DUP2 ADD SWAP1 PUSH2 0xF5 SWAP2 SWAP1 PUSH2 0x59E JUMP JUMPDEST PUSH2 0x29C JUMP JUMPDEST PUSH1 0x40 MLOAD PUSH2 0x107 SWAP2 SWAP1 PUSH2 0x2E1 JUMP JUMPDEST PUSH1 0x40 MLOAD DUP1 SWAP2 SUB SWAP1 RETURN JUMPDEST PUSH0 PUSH1 0x2 PUSH0 DUP2 SLOAD DUP2 LT PUSH2 0x125 JUMPI PUSH2 0x124 PUSH2 0x5E5 JUMP JUMPDEST JUMPDEST SWAP1 PUSH0 MSTORE PUSH1 0x20 PUSH0 KECCAK256 SWAP1 PUSH1 0x2 MUL ADD PUSH0 ADD SLOAD SWAP1 POP SWAP1 JUMP JUMPDEST PUSH1 0x2 DUP2 DUP2 SLOAD DUP2 LT PUSH2 0x148 JUMPI PUSH0 DUP1 REVERT JUMPDEST SWAP1 PUSH0 MSTORE PUSH1 0x20 PUSH0 KECCAK256 SWAP1 PUSH1 0x2 MUL ADD PUSH0 SWAP2 POP SWAP1 POP DUP1 PUSH0 ADD SLOAD SWAP1 DUP1 PUSH1 0x1 ADD DUP1 SLOAD PUSH2 0x16D SWAP1 PUSH2 0x63F JUMP JUMPDEST DUP1 PUSH1 0x1F ADD PUSH1 0x20 DUP1 SWAP2 DIV MUL PUSH1 0x20 ADD PUSH1 0x40 MLOAD SWAP1 DUP2 ADD PUSH1 0x40 MSTORE DUP1 SWAP3 SWAP2 SWAP1 DUP2 DUP2 MSTORE PUSH1 0x20 ADD DUP3 DUP1 SLOAD PUSH2 0x199 SWAP1 PUSH2 0x63F JUMP JUMPDEST DUP1 ISZERO PUSH2 0x1E4 JUMPI DUP1 PUSH1 0x1F LT PUSH2 0x1BB JUMPI PUSH2 0x100 DUP1 DUP4 SLOAD DIV MUL DUP4 MSTORE SWAP2 PUSH1 0x20 ADD SWAP2 PUSH2 0x1E4 JUMP JUMPDEST DUP3 ADD SWAP2 SWAP1 PUSH0 MSTORE PUSH1 0x20 PUSH0 KECCAK256 SWAP1 JUMPDEST DUP2 SLOAD DUP2 MSTORE SWAP1 PUSH1 0x1 ADD SWAP1 PUSH1 0x20 ADD DUP1 DUP4 GT PUSH2 0x1C7 JUMPI DUP3 SWAP1 SUB PUSH1 0x1F AND DUP3 ADD SWAP2 JUMPDEST POP POP POP POP POP SWAP1 POP DUP3 JUMP JUMPDEST DUP1 PUSH1 0x2 PUSH0 DUP2 SLOAD DUP2 LT PUSH2 0x203 JUMPI PUSH2 0x202 PUSH2 0x5E5 JUMP JUMPDEST JUMPDEST SWAP1 PUSH0 MSTORE PUSH1 0x20 PUSH0 KECCAK256 SWAP1 PUSH1 0x2 MUL ADD PUSH0 ADD DUP2 SWAP1 SSTORE POP POP JUMP JUMPDEST PUSH1 0x2 PUSH1 0x40 MLOAD DUP1 PUSH1 0x40 ADD PUSH1 0x40 MSTORE DUP1 DUP4 DUP2 MSTORE PUSH1 0x20 ADD DUP5 DUP2 MSTORE POP SWAP1 DUP1 PUSH1 0x1 DUP2 SLOAD ADD DUP1 DUP3 SSTORE DUP1 SWAP2 POP POP PUSH1 0x1 SWAP1 SUB SWAP1 PUSH0 MSTORE PUSH1 0x20 PUSH0 KECCAK256 SWAP1 PUSH1 0x2 MUL ADD PUSH0 SWAP1 SWAP2 SWAP1 SWAP2 SWAP1 SWAP2 POP PUSH0 DUP3 ADD MLOAD DUP2 PUSH0 ADD SSTORE PUSH1 0x20 DUP3 ADD MLOAD DUP2 PUSH1 0x1 ADD SWAP1 DUP2 PUSH2 0x272 SWAP2 SWAP1 PUSH2 0x80C JUMP JUMPDEST POP POP POP DUP1 PUSH1 0x3 DUP4 PUSH1 0x40 MLOAD PUSH2 0x286 SWAP2 SWAP1 PUSH2 0x915 JUMP JUMPDEST SWAP1 DUP2 MSTORE PUSH1 0x20 ADD PUSH1 0x40 MLOAD DUP1 SWAP2 SUB SWAP1 KECCAK256 DUP2 SWAP1 SSTORE POP POP POP JUMP JUMPDEST PUSH1 0x3 DUP2 DUP1 MLOAD PUSH1 0x20 DUP2 ADD DUP3 ADD DUP1 MLOAD DUP5 DUP3 MSTORE PUSH1 0x20 DUP4 ADD PUSH1 0x20 DUP6 ADD KECCAK256 DUP2 DUP4 MSTORE DUP1 SWAP6 POP POP POP POP POP POP PUSH0 SWAP2 POP SWAP1 POP SLOAD DUP2 JUMP JUMPDEST PUSH0 DUP2 SWAP1 POP SWAP2 SWAP1 POP JUMP JUMPDEST PUSH2 0x2DB DUP2 PUSH2 0x2C9 JUMP JUMPDEST DUP3 MSTORE POP POP JUMP JUMPDEST PUSH0 PUSH1 0x20 DUP3 ADD SWAP1 POP PUSH2 0x2F4 PUSH0 DUP4 ADD DUP5 PUSH2 0x2D2 JUMP JUMPDEST SWAP3 SWAP2 POP POP JUMP JUMPDEST PUSH0 PUSH1 0x40 MLOAD SWAP1 POP SWAP1 JUMP JUMPDEST PUSH0 DUP1 REVERT JUMPDEST PUSH0 DUP1 REVERT JUMPDEST PUSH2 0x314 DUP2 PUSH2 0x2C9 JUMP JUMPDEST DUP2 EQ PUSH2 0x31E JUMPI PUSH0 DUP1 REVERT JUMPDEST POP JUMP JUMPDEST PUSH0 DUP2 CALLDATALOAD SWAP1 POP PUSH2 0x32F DUP2 PUSH2 0x30B JUMP JUMPDEST SWAP3 SWAP2 POP POP JUMP JUMPDEST PUSH0 PUSH1 0x20 DUP3 DUP5 SUB SLT ISZERO PUSH2 0x34A JUMPI PUSH2 0x349 PUSH2 0x303 JUMP JUMPDEST JUMPDEST PUSH0 PUSH2 0x357 DUP5 DUP3 DUP6 ADD PUSH2 0x321 JUMP JUMPDEST SWAP2 POP POP SWAP3 SWAP2 POP POP JUMP JUMPDEST PUSH0 DUP2 MLOAD SWAP1 POP SWAP2 SWAP1 POP JUMP JUMPDEST PUSH0 DUP3 DUP3 MSTORE PUSH1 0x20 DUP3 ADD SWAP1 POP SWAP3 SWAP2 POP POP JUMP JUMPDEST PUSH0 JUMPDEST DUP4 DUP2 LT ISZERO PUSH2 0x397 JUMPI DUP1 DUP3 ADD MLOAD DUP2 DUP5 ADD MSTORE PUSH1 0x20 DUP2 ADD SWAP1 POP PUSH2 0x37C JUMP JUMPDEST PUSH0 DUP5 DUP5 ADD MSTORE POP POP POP POP JUMP JUMPDEST PUSH0 PUSH1 0x1F NOT PUSH1 0x1F DUP4 ADD AND SWAP1 POP SWAP2 SWAP1 POP JUMP JUMPDEST PUSH0 PUSH2 0x3BC DUP3 PUSH2 0x360 JUMP JUMPDEST PUSH2 0x3C6 DUP2 DUP6 PUSH2 0x36A JUMP JUMPDEST SWAP4 POP PUSH2 0x3D6 DUP2 DUP6 PUSH1 0x20 DUP7 ADD PUSH2 0x37A JUMP JUMPDEST PUSH2 0x3DF DUP2 PUSH2 0x3A2 JUMP JUMPDEST DUP5 ADD SWAP2 POP POP SWAP3 SWAP2 POP POP JUMP JUMPDEST PUSH0 PUSH1 0x40 DUP3 ADD SWAP1 POP PUSH2 0x3FD PUSH0 DUP4 ADD DUP6 PUSH2 0x2D2 JUMP JUMPDEST DUP2 DUP2 SUB PUSH1 0x20 DUP4 ADD MSTORE PUSH2 0x40F DUP2 DUP5 PUSH2 0x3B2 JUMP JUMPDEST SWAP1 POP SWAP4 SWAP3 POP POP POP JUMP JUMPDEST PUSH0 DUP1 REVERT JUMPDEST PUSH0 DUP1 REVERT JUMPDEST PUSH32 0x4E487B7100000000000000000000000000000000000000000000000000000000 PUSH0 MSTORE PUSH1 0x41 PUSH1 0x4 MSTORE PUSH1 0x24 PUSH0 REVERT JUMPDEST PUSH2 0x456 DUP3 PUSH2 0x3A2 JUMP JUMPDEST DUP2 ADD DUP2 DUP2 LT PUSH8 0xFFFFFFFFFFFFFFFF DUP3 GT OR ISZERO PUSH2 0x475 JUMPI PUSH2 0x474 PUSH2 0x420 JUMP JUMPDEST JUMPDEST DUP1 PUSH1 0x40 MSTORE POP POP POP JUMP JUMPDEST PUSH0 PUSH2 0x487 PUSH2 0x2FA JUMP JUMPDEST SWAP1 POP PUSH2 0x493 DUP3 DUP3 PUSH2 0x44D JUMP JUMPDEST SWAP2 SWAP1 POP JUMP JUMPDEST PUSH0 PUSH8 0xFFFFFFFFFFFFFFFF DUP3 GT ISZERO PUSH2 0x4B2 JUMPI PUSH2 0x4B1 PUSH2 0x420 JUMP JUMPDEST JUMPDEST PUSH2 0x4BB DUP3 PUSH2 0x3A2 JUMP JUMPDEST SWAP1 POP PUSH1 0x20 DUP2 ADD SWAP1 POP SWAP2 SWAP1 POP JUMP JUMPDEST DUP3 DUP2 DUP4 CALLDATACOPY PUSH0 DUP4 DUP4 ADD MSTORE POP POP POP JUMP JUMPDEST PUSH0 PUSH2 0x4E8 PUSH2 0x4E3 DUP5 PUSH2 0x498 JUMP JUMPDEST PUSH2 0x47E JUMP JUMPDEST SWAP1 POP DUP3 DUP2 MSTORE PUSH1 0x20 DUP2 ADD DUP5 DUP5 DUP5 ADD GT ISZERO PUSH2 0x504 JUMPI PUSH2 0x503 PUSH2 0x41C JUMP JUMPDEST JUMPDEST PUSH2 0x50F DUP5 DUP3 DUP6 PUSH2 0x4C8 JUMP JUMPDEST POP SWAP4 SWAP3 POP POP POP JUMP JUMPDEST PUSH0 DUP3 PUSH1 0x1F DUP4 ADD SLT PUSH2 0x52B JUMPI PUSH2 0x52A PUSH2 0x418 JUMP JUMPDEST JUMPDEST DUP2 CALLDATALOAD PUSH2 0x53B DUP5 DUP3 PUSH1 0x20 DUP7 ADD PUSH2 0x4D6 JUMP JUMPDEST SWAP2 POP POP SWAP3 SWAP2 POP POP JUMP JUMPDEST PUSH0 DUP1 PUSH1 0x40 DUP4 DUP6 SUB SLT ISZERO PUSH2 0x55A JUMPI PUSH2 0x559 PUSH2 0x303 JUMP JUMPDEST JUMPDEST PUSH0 DUP4 ADD CALLDATALOAD PUSH8 0xFFFFFFFFFFFFFFFF DUP2 GT ISZERO PUSH2 0x577 JUMPI PUSH2 0x576 PUSH2 0x307 JUMP JUMPDEST JUMPDEST PUSH2 0x583 DUP6 DUP3 DUP7 ADD PUSH2 0x517 JUMP JUMPDEST SWAP3 POP POP PUSH1 0x20 PUSH2 0x594 DUP6 DUP3 DUP7 ADD PUSH2 0x321 JUMP JUMPDEST SWAP2 POP POP SWAP3 POP SWAP3 SWAP1 POP JUMP JUMPDEST PUSH0 PUSH1 0x20 DUP3 DUP5 SUB SLT ISZERO PUSH2 0x5B3 JUMPI PUSH2 0x5B2 PUSH2 0x303 JUMP JUMPDEST JUMPDEST PUSH0 DUP3 ADD CALLDATALOAD PUSH8 0xFFFFFFFFFFFFFFFF DUP2 GT ISZERO PUSH2 0x5D0 JUMPI PUSH2 0x5CF PUSH2 0x307 JUMP JUMPDEST JUMPDEST PUSH2 0x5DC DUP5 DUP3 DUP6 ADD PUSH2 0x517 JUMP JUMPDEST SWAP2 POP POP SWAP3 SWAP2 POP POP JUMP JUMPDEST PUSH32 0x4E487B7100000000000000000000000000000000000000000000000000000000 PUSH0 MSTORE PUSH1 0x32 PUSH1 0x4 MSTORE PUSH1 0x24 PUSH0 REVERT JUMPDEST PUSH32 0x4E487B7100000000000000000000000000000000000000000000000000000000 PUSH0 MSTORE PUSH1 0x22 PUSH1 0x4 MSTORE PUSH1 0x24 PUSH0 REVERT JUMPDEST PUSH0 PUSH1 0x2 DUP3 DIV SWAP1 POP PUSH1 0x1 DUP3 AND DUP1 PUSH2 0x656 JUMPI PUSH1 0x7F DUP3 AND SWAP2 POP JUMPDEST PUSH1 0x20 DUP3 LT DUP2 SUB PUSH2 0x669 JUMPI PUSH2 0x668 PUSH2 0x612 JUMP JUMPDEST JUMPDEST POP SWAP2 SWAP1 POP JUMP JUMPDEST PUSH0 DUP2 SWAP1 POP DUP2 PUSH0 MSTORE PUSH1 0x20 PUSH0 KECCAK256 SWAP1 POP SWAP2 SWAP1 POP JUMP JUMPDEST PUSH0 PUSH1 0x20 PUSH1 0x1F DUP4 ADD DIV SWAP1 POP SWAP2 SWAP1 POP JUMP JUMPDEST PUSH0 DUP3 DUP3 SHL SWAP1 POP SWAP3 SWAP2 POP POP JUMP JUMPDEST PUSH0 PUSH1 0x8 DUP4 MUL PUSH2 0x6CB PUSH32 0xFFFFFFFFFFFFFFFFFFFFFFFFFFFFFFFFFFFFFFFFFFFFFFFFFFFFFFFFFFFFFFFF DUP3 PUSH2 0x690 JUMP JUMPDEST PUSH2 0x6D5 DUP7 DUP4 PUSH2 0x690 JUMP JUMPDEST SWAP6 POP DUP1 NOT DUP5 AND SWAP4 POP DUP1 DUP7 AND DUP5 OR SWAP3 POP POP POP SWAP4 SWAP3 POP POP POP JUMP JUMPDEST PUSH0 DUP2 SWAP1 POP SWAP2 SWAP1 POP JUMP JUMPDEST PUSH0 PUSH2 0x710 PUSH2 0x70B PUSH2 0x706 DUP5 PUSH2 0x2C9 JUMP JUMPDEST PUSH2 0x6ED JUMP JUMPDEST PUSH2 0x2C9 JUMP JUMPDEST SWAP1 POP SWAP2 SWAP1 POP JUMP JUMPDEST PUSH0 DUP2 SWAP1 POP SWAP2 SWAP1 POP JUMP JUMPDEST PUSH2 0x729 DUP4 PUSH2 0x6F6 JUMP JUMPDEST PUSH2 0x73D PUSH2 0x735 DUP3 PUSH2 0x717 JUMP JUMPDEST DUP5 DUP5 SLOAD PUSH2 0x69C JUMP JUMPDEST DUP3 SSTORE POP POP POP POP JUMP JUMPDEST PUSH0 SWAP1 JUMP JUMPDEST PUSH2 0x751 PUSH2 0x745 JUMP JUMPDEST PUSH2 0x75C DUP2 DUP5 DUP5 PUSH2 0x720 JUMP JUMPDEST POP POP POP JUMP JUMPDEST JUMPDEST DUP2 DUP2 LT ISZERO PUSH2 0x77F JUMPI PUSH2 0x774 PUSH0 DUP3 PUSH2 0x749 JUMP JUMPDEST PUSH1 0x1 DUP2 ADD SWAP1 POP PUSH2 0x762 JUMP JUMPDEST POP POP JUMP JUMPDEST PUSH1 0x1F DUP3 GT ISZERO PUSH2 0x7C4 JUMPI PUSH2 0x795 DUP2 PUSH2 0x66F JUMP JUMPDEST PUSH2 0x79E DUP5 PUSH2 0x681 JUMP JUMPDEST DUP2 ADD PUSH1 0x20 DUP6 LT ISZERO PUSH2 0x7AD JUMPI DUP2 SWAP1 POP JUMPDEST PUSH2 0x7C1 PUSH2 0x7B9 DUP6 PUSH2 0x681 JUMP JUMPDEST DUP4 ADD DUP3 PUSH2 0x761 JUMP JUMPDEST POP POP JUMPDEST POP POP POP JUMP JUMPDEST PUSH0 DUP3 DUP3 SHR SWAP1 POP SWAP3 SWAP2 POP POP JUMP JUMPDEST PUSH0 PUSH2 0x7E4 PUSH0 NOT DUP5 PUSH1 0x8 MUL PUSH2 0x7C9 JUMP JUMPDEST NOT DUP1 DUP4 AND SWAP2 POP POP SWAP3 SWAP2 POP POP JUMP JUMPDEST PUSH0 PUSH2 0x7FC DUP4 DUP4 PUSH2 0x7D5 JUMP JUMPDEST SWAP2 POP DUP3 PUSH1 0x2 MUL DUP3 OR SWAP1 POP SWAP3 SWAP2 POP POP JUMP JUMPDEST PUSH2 0x815 DUP3 PUSH2 0x360 JUMP JUMPDEST PUSH8 0xFFFFFFFFFFFFFFFF DUP2 GT ISZERO PUSH2 0x82E JUMPI PUSH2 0x82D PUSH2 0x420 JUMP JUMPDEST JUMPDEST PUSH2 0x838 DUP3 SLOAD PUSH2 0x63F JUMP JUMPDEST PUSH2 0x843 DUP3 DUP3 DUP6 PUSH2 0x783 JUMP JUMPDEST PUSH0 PUSH1 0x20 SWAP1 POP PUSH1 0x1F DUP4 GT PUSH1 0x1 DUP2 EQ PUSH2 0x874 JUMPI PUSH0 DUP5 ISZERO PUSH2 0x862 JUMPI DUP3 DUP8 ADD MLOAD SWAP1 POP JUMPDEST PUSH2 0x86C DUP6 DUP3 PUSH2 0x7F1 JUMP JUMPDEST DUP7 SSTORE POP PUSH2 0x8D3 JUMP JUMPDEST PUSH1 0x1F NOT DUP5 AND PUSH2 0x882 DUP7 PUSH2 0x66F JUMP JUMPDEST PUSH0 JUMPDEST DUP3 DUP2 LT ISZERO PUSH2 0x8A9 JUMPI DUP5 DUP10 ADD MLOAD DUP3 SSTORE PUSH1 0x1 DUP3 ADD SWAP2 POP PUSH1 0x20 DUP6 ADD SWAP5 POP PUSH1 0x20 DUP2 ADD SWAP1 POP PUSH2 0x884 JUMP JUMPDEST DUP7 DUP4 LT ISZERO PUSH2 0x8C6 JUMPI DUP5 DUP10 ADD MLOAD PUSH2 0x8C2 PUSH1 0x1F DUP10 AND DUP3 PUSH2 0x7D5 JUMP JUMPDEST DUP4 SSTORE POP JUMPDEST PUSH1 0x1 PUSH1 0x2 DUP9 MUL ADD DUP9 SSTORE POP POP POP JUMPDEST POP POP POP POP POP POP JUMP JUMPDEST PUSH0 DUP2 SWAP1 POP SWAP3 SWAP2 POP POP JUMP JUMPDEST PUSH0 PUSH2 0x8EF DUP3 PUSH2 0x360 JUMP JUMPDEST PUSH2 0x8F9 DUP2 DUP6 PUSH2 0x8DB JUMP JUMPDEST SWAP4 POP PUSH2 0x909 DUP2 DUP6 PUSH1 0x20 DUP7 ADD PUSH2 0x37A JUMP JUMPDEST DUP1 DUP5 ADD SWAP2 POP POP SWAP3 SWAP2 POP POP JUMP JUMPDEST PUSH0 PUSH2 0x920 DUP3 DUP5 PUSH2 0x8E5 JUMP JUMPDEST SWAP2 POP DUP2 SWAP1 POP SWAP3 SWAP2 POP POP JUMP INVALID LOG2 PUSH5 0x6970667358 0x22 SLT KECCAK256 DUP14 SWAP2 SWAP6 EXTCODESIZE PUSH23 0xB132038DCE7A05A2D60D330CA9F39FF3142CD70F2031BC SIGNEXTEND MSIZE 0xE1 0xB1 PUSH5 0x736F6C6343 STOP ADDMOD XOR STOP CALLER "
		},
		"gasEstimates": {
			"creation": {
				"codeDepositCost": "480200",
				"executionCost": "516",
				"totalCost": "480716"
			},
			"external": {
				"addPerson(string,uint256)": "infinite",
				"listofFriends(uint256)": "infinite",
				"nameToNum(string)": "infinite",
				"retrieve()": "4603",
				"store(uint256)": "24730"
			}
		},
		"methodIdentifiers": {
			"addPerson(string,uint256)": "6f760f41",
			"listofFriends(uint256)": "51b6b767",
			"nameToNum(string)": "92fa9da3",
			"retrieve()": "2e64cec1",
			"store(uint256)": "6057361d"
		}
	},
	"abi": [
		{
			"inputs": [
				{
					"internalType": "string",
					"name": "_name",
					"type": "string"
				},
				{
					"internalType": "uint256",
					"name": "_favNum",
					"type": "uint256"
				}
			],
			"name": "addPerson",
			"outputs": [],
			"stateMutability": "nonpayable",
			"type": "function"
		},
		{
			"inputs": [
				{
					"internalType": "uint256",
					"name": "",
					"type": "uint256"
				}
			],
			"name": "listofFriends",
			"outputs": [
				{
					"internalType": "uint256",
					"name": "favoriteNumber",
					"type": "uint256"
				},
				{
					"internalType": "string",
					"name": "name",
					"type": "string"
				}
			],
			"stateMutability": "view",
			"type": "function"
		},
		{
			"inputs": [
				{
					"internalType": "string",
					"name": "",
					"type": "string"
				}
			],
			"name": "nameToNum",
			"outputs": [
				{
					"internalType": "uint256",
					"name": "",
					"type": "uint256"
				}
			],
			"stateMutability": "view",
			"type": "function"
		},
		{
			"inputs": [],
			"name": "retrieve",
			"outputs": [
				{
					"internalType": "uint256",
					"name": "",
					"type": "uint256"
				}
			],
			"stateMutability": "view",
			"type": "function"
		},
		{
			"inputs": [
				{
					"internalType": "uint256",
					"name": "_favoriteNumber",
					"type": "uint256"
				}
			],
			"name": "store",
			"outputs": [],
			"stateMutability": "nonpayable",
			"type": "function"
		}
	]
}